:100000000C942A000C943F000C943F000C943F0089
:100010000C943F000C943F000C943F000C943F0064
:100020000C943F000C943F000C943F000C943F0054
:100030000C943F000C943F000C943F000C943F0044
:100040000C943F000C943F000C943F000C943F0034
:100050000C943F0011241FBECFE5D8E0DEBFCDBF1A
:1000600010E0A0E6B0E0EEE5F2E002C005900D92EF
:10007000A437B107D9F70E9441000C942D010C94CC
:100080000000CF93DF93CDB7DEB728970FB6F89473
:10009000DEBF0FBECDBF8FEF84BB87BB412C0F2EC1
:1000A000FAE02F2E312CF02D0F2EFEEF9F2EF02D8B
:1000B0004DEF0F2EFBEF7F2EF02D0F2EF7EF6F2E53
:1000C000F02D0F2EFFEE5F2EF02D4B821C824D8205
:1000D00020E02E8349821A820F2EFFED8F2EF02D05
:1000E00080C095BA5C9158BBE7E8F3E13197F1F72E
:1000F00000C0000045BBFB01508158BBE7E8F3E1BD
:100100003197F1F700C0000075BAEF81F885508192
:1001100058BBE7E8F3E13197F1F700C0000065BA9A
:10012000FC01508158BBE7E8F3E13197F1F700C0DB
:10013000000055BAF601508158BBE7E8F3E131976A
:10014000F1F700C0000085BAF801508158BBE7E81C
:10015000F3E13197F1F700C000002150310909F0B7
:10016000C0CFEF81F88598878F832FEFE21AF20ACC
:100170003CE3E316F104A1F0C701B1010E940501BF
:100180002CE330E0DC01AA0FBB1FA05ABF4F660F63
:10019000771F605A7F4F8F819885F887EF83A1CFB3
:1001A0008FEFA81AB80A9CE3A916B10491F0C50113
:1001B000B1010E940501ED80FE80FC01EE0FFF1FE2
:1001C000E05AFF4F660F771F605A7F4F78876F8323
:1001D000D3CFE981FA813196FA83E9833C9709F418
:1001E00079CF89819A81B1010E940501AB80BC80E1
:1001F000880F991F9C01205A3F4F6901FB01EE0FA8
:10020000FF1FE05AFF4F8F01D2CF97FB072E16F446
:10021000009407D077FD09D00E94190107FC05D092
:100220003EF4909581959F4F0895709561957F4F0D
:100230000895AA1BBB1B51E107C0AA1FBB1FA6172D
:10024000B70710F0A61BB70B881F991F5A95A9F77F
:0E02500080959095BC01CD010895F894FFCFE4
:10025E003F0006005B004F0066006D007D0007004A
:04026E007F006700A6
:00000001FF
