:100000000C942A000C943F000C943F000C943F0089
:100010000C943F000C943F000C943F000C943F0064
:100020000C943F000C943F000C943F000C943F0054
:100030000C943F000C943F000C943F000C943F0044
:100040000C943F000C943F000C943F000C943F0034
:100050000C943F0011241FBECFE5D8E0DEBFCDBF1A
:1000600010E0A0E6B0E0EAE5F2E002C005900D92F3
:10007000A437B107D9F70E9441000C942B010C94CE
:100080000000CF93DF9300D000D000D0CDB7DEB713
:100090008FEF84BB87BB4EEF0F2EFDEF7F2EF02D31
:1000A0000F2EFBEF6F2EF02D0F2EF7EF5F2EF02DA2
:1000B000212C1B822C820F2EFEE14F2EF02D312C95
:1000C00088248394912C0F2EFFEEDF2EF02D0F2E1F
:1000D000FFEDCF2EF02D83C045BB5C9158BBEFE008
:1000E000F7E23197F1F700C0000075BAFB015081CB
:1000F00058BBEFE0F7E23197F1F700C0000065BAB6
:10010000ED81FE81508158BBEFE0F7E23197F1F7C6
:1001100000C0000055BAFC01508158BBEFE0F7E287
:100120003197F1F700C00000D5BAF801508158BBF3
:10013000EFE0F7E23197F1F700C00000C5BAF50132
:10014000508158BBEFE0F7E23197F1F700C00000B3
:100150002150310909F0C0CFED81FE819E838D834E
:100160008FEFE81AF80A9CE3E916F104A9F0C70139
:100170006AE070E00E940301242D332DDC01AA0FF8
:10018000BB1FA05ABF4F660F771F605A7F4F8D81EC
:100190009E81FE83ED83A0CFE981FA813196FA83B7
:1001A000E983FC97A1F089819A816AE070E00E945E
:1001B0000301EB80FC80FC01EE0FFF1FE05AFF4FB4
:1001C000660F771F605A7F4F7E836D83D0CFFFEF1E
:1001D0008F1A9F0A8DE08816910409F471CFC4012B
:1001E0006AE070E00E94030119822A82FC01EE0F8E
:1001F000FF1FE05AFF4F660F771FCB01805A9F4FBA
:100200005C018F01D0CF97FB072E16F4009407D026
:1002100077FD09D00E94170107FC05D03EF49095A8
:1002200081959F4F0895709561957F4F0895AA1B02
:10023000BB1B51E107C0AA1FBB1FA617B70710F0D1
:10024000A61BB70B881F991F5A95A9F78095909503
:0A025000BC01CD010895F894FFCF22
:10025A003F0006005B004F0066006D007D0007004E
:04026A007F006700AA
:00000001FF
