S01200004C4344204472697665722E73726563B3
S113000029C000003AC0000038C0000036C000001B
S113001034C0000032C0000030C000002EC0000018
S11300202CC000002AC0000028C0000026C0000028
S113003024C0000022C0000020C000001EC0000038
S11300401CC000001AC0000018C0000016C0000048
S113005014C0000011241FBECFE5D4E0DEBFCDBF25
S113006010E0A0E6B0E0E8EAF4E002C005900D92EA
S1130070A836B107D9F783D015C2C2CF17B883E821
S113008086B9089597B1907E97B997B18770982BE8
S113009097B9369A349BFECF349A84B195B10895BA
S11300A094989598E9EFF0E03197F1F700C00000DB
S11300B0969A85BB89EF90E00197F1F700C00000A4
S11300C09698E9EFF0E03197F1F700C00000089549
S11300D0949A9598E9EFF0E03197F1F700C00000A9
S11300E0969A85BB89EF90E00197F1F700C0000074
S11300F09698E9EFF0E03197F1F700C00000089519
S1130100CF93DF93EC018881882329F02196E0DFE7
S113011089918111FCCFDF91CF9108958FEF84BB3A
S113012081B3806781BB88E3BBDF8CE0B9DF81E00A
S1130130B7CF08958111605C862F8068B1CF089590
S113014081E0AECF0895CF93DF93CDB7DEB760974C
S11301500FB6F894DEBF0FBECDBF4AE050E0BE013B
S11301606F5F7F4F62D1CE010196CADF60960FB6F2
S1130170F894DEBF0FBECDBFDF91CF910895CEDFDF
S11301807DDFDEDF80E690E0BBDF6CE080E0D2DF85
S113019083E49EDF69E080E0CDDF80E090E072DF01
S11301A02EEE32E0DC012CD19DD020E030ED4FEB7F
S11301B054E404D06BD0CB01C6DFECCF0CD0E6C046
S11301C0DED040F0D5D030F021F45F3F19F0C7C045
S11301D0511110C1CAC0EBD098F39923C9F3552328
S11301E0B1F3951B550BBB27AA2762177307840726
S11301F038F09F5F5F4F220F331F441FAA1FA9F3DC
S113020033D00E2E3AF0E0E830D091505040E695CD
S1130210001CCAF729D0FE2F27D0660F771F881F2E
S1130220BB1F261737074807AB07B0E809F0BB0B1D
S1130230802DBF01FF2793585F4F2AF09E3F510541
S113024068F08DC0D7C05F3FECF3983EDCF3869531
S113025077956795B795F7959F5FC9F7880F911DB7
S11302609695879597F90895E1E0660F771F881FA3
S1130270BB1F621773078407BA0720F0621B730B56
S1130280840BBA0BEE1F88F7E095089598D088F098
S11302909F5790F0B92F9927B751A0F0D1F0660F6E
S11302A0771F881F991F1AF0BA95C9F712C0B13089
S11302B081F09FD0B1E008959CC0672F782F8827E4
S11302C0B85F39F0B93FCCF3869577956795B395C8
S11302D0D9F73EF490958095709561957F4F8F4F37
S11302E09F4F0895E89409C097FB3EF4909580953C
S11302F0709561957F4F8F4F9F4F9923A9F0F92FE8
S113030096E9BB279395F695879577956795B79565
S1130310F111F8CFFAF4BB0F11F460FF1BC06F5F4B
S11303207F4F8F4F9F4F16C0882311F096E911C05D
S1130330772321F09EE8872F762F05C0662371F07E
S113034096E8862F70E060E02AF09A95660F771F92
S1130350881FDAF7880F9695879597F9089597F986
S11303609F6780E870E060E008959FEF80EC089557
S113037000240A9416161706180609060895002480
S11303800A9412161306140605060895092E0394FA
S1130390000C11F4882352F0BB0F40F4BF2B11F46E
S11303A060FF04C06F5F7F4F8F4F9F4F089557FDCD
S11303B09058440F551F59F05F3F71F04795880FCF
S11303C097FB991F61F09F3F79F087950895121666
S11303D013061406551FF2CF4695F1DF08C0161612
S11303E017061806991FF1CF8695710561050894C3
S11303F00895E894BB2766277727CB0197F90895DA
S113040005D0B7FF0895821B930B0895A29FB001F6
S1130410B39FC001A39F700D811D1124911DB29F34
S1130420700D811D1124911D08954532510518F454
S1130430423008F004C0FB011082CB010895BB27B1
S11304404A3031F4992322F4BDE2909581959F4F6F
S113045001C0BB27FB015527AA27880F991FAA1F94
S1130460A41710F0A41B83955051B9F7A05DAA33CB
S113047008F0A95DA193009779F7B111B193119296
S1130480CB0100C0DC01FC01672F71917723E1F7F8
S1130490329704C07C916D9370836291AE17BF074D
S10B04A0C8F30895F894FFCF9E
S10B04A854656D703D20000055
S9030000FC
