S012000043616C63756C61746F722E7372656308
S11300000C942A000C9447000C9447000C9447006D
S11300100C9447000C9447000C9447000C94470040
S11300200C9447000C9447000C9447000C94470030
S11300300C9447000C9447000C9447000C94470020
S11300400C9447000C9447000C9447000C94470010
S11300500C94470011241FBECFE5D8E0DEBFCDBF0E
S113006010E0A0E6B0E0EAECF9E102C005900D92E0
S1130070AE39B107D9F710E0AEE9B0E001C01D9286
S1130080A23AB107E1F70E9449000C94E30C0C94E6
S11300900000CF93DF93CDB7DEB7A1970FB6F894E6
S11300A0DEBF0FBECDBF0E94DC0188E30E94BA010F
S11300B00E949E007E010894E11CF11C0E94A50090
S11300C0182F8F3321F40E94D8011982F7CF81347D
S11300D0A9F38D3341F40E94D801C7010E94D204D0
S11300E00E945802EBCFF70101900020E9F7CF01FD
S11300F042978E159F0539F480EC0E94BA01812F36
S11301000E941C0203C0812F0E941C02F70101906F
S11301100020E9F73197EE19FF09E032F10570F696
S113012082E090E08C0F9D1FE80FF91F1082F70109
S113013001900020E9F731971083C0CF889881B3EC
S1130140806F81BB8FEF82BB08956F927F928F92F5
S11301509F92AF92BF92CF92DF92EF92FF920F9352
S11301601F93CF93DF9300E610E0C0E0D0E0D80106
S113017061E070E0EE24FF246894E1F8E00EF11EE3
S1130180CC24DD246894C2F8C00ED11E0F2EF6E0F4
S1130190AF2EBB24F02DA00EB11E0F2EF8E68F2E2D
S11301A0F0E09F2EF02D6624772492B39B010C90EF
S11301B002C0220F331F0A94E2F7AB01F70100805B
S11301C002C0440F551F0A94E2F7242B292BCB01BC
S11301D0F601008002C0880F991F0A94E2F7822B6F
S11301E09B01F501008002C0220F331F0A94E2F73D
S11301F0822B82BB22B3F80180810E5F1F4FAB01BB
S113020002C0440F551F8A95E2F7CA01809528233E
S113021022BBF401A30180B32081329690E0022E28
S113022002C0959587950A94E2F780FD50C0CB01F2
S113023002C0880F991F2A95E2F79C0180B390E0D1
S1130240822393230097D1F3C130D105D1F0C2307A
S1130250D1051CF4209741F03AC0C230D105F1F029
S1130260C330D105A1F527C041155105E9F141304D
S11302705105E1F142305105D9F14330510539F5C9
S113028039C041155105C1F141305105B9F1423030
S11302905105B1F143305105D1F434C04115510534
S11302A099F14130510591F14230510589F14330C2
S11302B0510569F42FC04115510571F141305105C3
S11302C069F14230510561F14330510559F14F5FF5
S11302D05F4F4430510509F09ECF2196C430D105BB
S11302E009F063CF81E41FC087E31DC084E31BC012
S11302F081E319C08FE317C088E315C085E313C0F9
S113030082E311C080E30FC089E30DC086E30BC014
S113031083E309C08DE307C08FE205C08AE203C00E
S11303208DE201C08BE2DF91CF911F910F91FF907D
S1130330EF90DF90CF90BF90AF909F908F907F9081
S11303406F900895C398000000008FE798E3A1E040
S113035081509040A040E1F700C00000C39A089586
S11303608AB31ABAC29AC1980E94A2018FEF8ABBBB
S1130370C2980895CF93C82F0E94B001CBBB88B315
S1130380897F88BB0E94A201CF910895882339F404
S1130390603168F4862F80580E94BA010895813034
S11303A031F4603120F4862F80540E94BA010895FC
S11303B081E00E94BA0108958FE39CE90197F1F767
S11303C000C0000087B38E6087BB88B3817F88BB81
S11303D08FEF8ABB8FE295E70197F1F700C0000029
S11303E00E94D80188E30E94BA0186E00E94BA0103
S11303F080E80E94BA018FE00E94BA010895CF9369
S1130400C82F0E94B0018BB38F708BBB8BB39C2F12
S1130410907F892B8BBB88B3897F88BB0E94A20104
S113042088B38F7088BB88B3C295C07FC82BC8BB04
S11304300E94A201CF910895CF93C82F0E94B001CA
S1130440C19ACBBBC19AC2980E94A201CF910895D0
S1130450EF92FF920F931F93CF93DF93082F192FDF
S1130460C0E0D0E0EE24FF2417C021960E941C02B5
S1130470C031D10529F481E060E00E94C6010CC0BE
S1130480CE0180978230910538F40E94D80180E033
S113049060E00E94C601E701F80181918F01882381
S11304A021F7DF91CF911F910F91FF90EF90089565
S11304B00F931F93CF93DF93CDB7DEB727970FB674
S11304C0F894DEBF0FBECDBF00D000D000D0EDB792
S11304D0FEB731968E010F5F1F4FADB7BEB71296B0
S11304E01C930E93119720E730E033832283958386
S11304F084830E940C0A8DB79EB706960FB6F894B3
S11305009EBF0FBE8DBFC8010E94280227960FB65A
S1130510F894DEBF0FBECDBFDF91CF911F910F9135
S113052008958F929F92AF92BF92CF92DF92EF92F3
S1130530FF920F931F93CF93DF93CDB7DEB76097EE
S11305400FB6F894DEBF0FBECDBF6B017C0120E077
S113055030E0A9010E946C0788235CF4F7FAF09458
S1130560F7F8F0940F2EF3E78F2EF0E09F2EF02D86
S113057006C00F2EF5E78F2EF0E09F2EF02DC70159
S1130580B6010E947007DC01CB012DB73EB72A509B
S113059030400FB6F8943EBF0FBE2DBF0DB71EB747
S11305A00F5F1F4F5E010894A11CB11CEDB7FEB78D
S11305B0B282A18226E730E0F80133832283958258
S11305C08482978386839C01B901882777FD80956F
S11305D0982F0E94A3079B01AC01C701B6010E949A
S11305E0070720E030E44CE156E40E9453080E94DF
S11305F07007DC01CB01F801918780870E940C0A07
S11306002DB73EB7265F3F4F0FB6F8943EBF0FBEDF
S11306102DBFC5010E94280260960FB6F894DEBF74
S11306200FBECDBFDF91CF911F910F91FF90EF903F
S1130630DF90CF90BF90AF909F908F9008950F93CD
S11306401F93CF93DF93EC0186E090E00E94DD08D6
S1130650082F192F01151105B1F08FEF9FEFF80145
S113066091838083D383C283CE01880F991F0E9414
S1130670DD08282F392FF80135832483211531050E
S113068011F400E010E0802F912FDF91CF911F91A2
S11306900F91089521E030E0FC0180819181FFEF0A
S11306A08F3F9F0711F020E030E0822F932F0895B1
S11306B0FC0180819181880F991F0480F581E02DD0
S11306C0E80FF91F80810895CF93DF93EC010E9416
S11306D04A03009781F448815981CA01880F991F00
S11306E02C813D81820F931FFC0180814150504039
S11306F05983488301C084E2DF91CF910895FC01BE
S113070084819581208131812F5F3F4F3183208304
S1130710F901EE0FFF1FE80FF91F6083118208959E
S1130720805321E030E08A3010F020E030E0822F66
S1130730932F08958D3261F08E3228F48A3289F035
S11307408B3261F405C08F3261F08E3539F403C009
S113075081E090E0089583E090E008958FEF9FEFAB
S1130760089582E090E008956F927F928F929F9215
S1130770AF92BF92CF92DF92EF92FF920F931F93AB
S1130780CF93DF933C01E82FF72DDF010D9000207C
S1130790E9F7CD0101978E1B9F0B0E941F037C017B
S11307A0009709F481C0F301C081CC2309F463C02C
S11307B043010894811C911C5301CC24CA94DC2C61
S11307C08C2F0E949003009741F00894C11CD11C07
S11307D0F301EC0DFD1DC08346C0C83229F4C701E6
S11307E068E20E947F033FC0C93229F0E6012196E6
S11307F0C60DD71D21C0E6012196C60DD71D07C021
S11308000894C11CD11CC7010E9464038993C701C9
S11308100E944A03009729F4C7010E9458038832B2
S113082079F7C7010E9464031EC00894C11CD11C3F
S1130830C7010E9464038993C7010E944A03009779
S113084069F4D5018C910E949A038C01C7010E941E
S113085058030E949A03801791073CF7C701F501DA
S113086060810E947F035401D401CD914D01CC23BA
S113087009F0A6CF03C0CC24CA94DC2CE60121964F
S1130880C60DD71D07C00894C11CD11CC7010E9406
S113089064038993C7010E944A030097A1F3C60C1D
S11308A0D71CF601118202C08FEF9FEFDF91CF9129
S11308B01F910F91FF90EF90DF90CF90BF90AF907A
S11308C09F908F907F906F900895DF92EF92FF92A8
S11308D00F931F93CF93DF937C01E82FFF2DDF014C
S11308E00D900020E9F7CD0101978E1B9F0B0E940C
S11308F01F038C01009709F44BC0F7016081662344
S113090009F441C0E7012196862F90E0C0978A3010
S1130910910528F46053C8010E947F0330C0C801C8
S11309200E946403D82EC8010E946403D7019C91DD
S11309309B3251F09C3218F49A3209F511C09D3261
S113094049F09F32E1F413C0682F6D0DC8010E9475
S11309507F0315C0682F6D19C8010E947F030FC063
S11309608D9D602D1124C8010E947F0308C06D2D48
S113097090E070E00E94B608C8010E947F037E01E7
S11309806991662309F6C8010E94640390E002C0DD
S11309908FEF9FEFDF91CF911F910F91FF90EF9019
S11309A0DF900895CF93DF93EC010E94B403CE014E
S11309B00E946504DF91CF910895DF93CF9300D017
S11309C000D0CDB7DEB78A838A81282F30E03C83FC
S11309D02B838B819C8184349105C1F12B813C81D3
S11309E02534310584F48B819C818234910541F155
S11309F02B813C812334310534F58B819C818134F6
S1130A009105E1F025C02B813C8122363105C1F0EE
S1130A108B819C818336910534F42B813C81213672
S1130A20310561F015C08B819C818336910559F0A5
S1130A302B813C812436310549F00AC0198208C053
S1130A4081E0898305C082E0898302C083E08983D1
S1130A5089810F900F900F900F90CF91DF9108959F
S1130A60DF93CF93CDB7DEB7E0918E00F0918F0086
S1130A701082E0919000F09191001082E091920038
S1130A80F09193001082E0919400F091950010820F
S1130A90CF91DF910895DF93CF9300D000D00F92D0
S1130AA0CDB7DEB78A837C836B834D838A8188309C
S1130AB010F0198220C08D810E94DD04882F90E0FF
S1130AC0880F991FFC01EA56FF4F0190F081E02D39
S1130AD08081282F30E08A81882F90E0A90102C00C
S1130AE0559547958A95E2F7CA018170EB81FC819F
S1130AF0808381E0898389810F900F900F900F90FC
S1130B000F90CF91DF910895DF93CF9300D000D061
S1130B1000D0CDB7DEB78A836B834C838A8188305B
S1130B2010F019824FC08B81282F30E03E832D8333
S1130B308D819E81009729F12D813E8121303105DF
S1130B4009F03FC08C810E94DD04882F90E0880F5B
S1130B50991FFC01EA57FF4F0190F081E02D80813D
S1130B60482F8A81282F30E081E090E0022E02C0D5
S1130B70880F991F0A94E2F7842B808381E089838C
S1130B8021C08C810E94DD04882F90E0880F991F7A
S1130B90FC01EA57FF4F0190F081E02D8081482F3E
S1130BA08A81282F30E081E090E0022E02C0880F75
S1130BB0991F0A94E2F780958423808381E08983D6
S1130BC001C01982898126960FB6F894DEBF0FBE44
S1130BD0CDBFCF91DF910895DF93CF9300D000D0A4
S1130BE000D0CDB7DEB78A836B834C838A8188308B
S1130BF010F019824FC08B81282F30E03E832D8363
S1130C008D819E81009729F12D813E81213031050E
S1130C1009F03FC08C810E94DD04882F90E0880F8A
S1130C20991FFC01E257FF4F0190F081E02D808174
S1130C30482F8A81282F30E081E090E0022E02C004
S1130C40880F991F0A94E2F7842B808381E08983BB
S1130C5021C08C810E94DD04882F90E0880F991FA9
S1130C60FC01E257FF4F0190F081E02D8081482F75
S1130C708A81282F30E081E090E0022E02C0880FA4
S1130C80991F0A94E2F780958423808381E0898305
S1130C9001C01982898126960FB6F894DEBF0FBE73
S1130CA0CDBFCF91DF910895DF93CF9300D000D0D3
S1130CB00F92CDB7DEB78A837C836B834D838A81A1
S1130CC0883010F0198220C08D810E94DD04882FA5
S1130CD090E0880F991FFC01E257FF4F0190F081CB
S1130CE0E02D8081282F30E08A81882F90E0A901AF
S1130CF002C0559547958A95E2F7CA018170EB8148
S1130D00FC81808381E0898389810F900F900F900B
S1130D100F900F90CF91DF910895DF93CF9300D080
S1130D200F92CDB7DEB79A8389836B838B810E9440
S1130D30DD04882F90E0880F991FFC01EA56FF4FCD
S1130D400190F081E02D8081E981FA81808381E046
S1130D500F900F900F90CF91DF910895DF93CF9371
S1130D6000D0CDB7DEB789836A838A810E94DD040F
S1130D70882F90E0880F991FFC01EA57FF4F0190DC
S1130D80F081E02D8981808381E00F900F90CF91D5
S1130D90DF910895DF93CF9300D0CDB7DEB7898379
S1130DA06A838A810E94DD04882F90E0880F991F4E
S1130DB0FC01E257FF4F0190F081E02D898180838F
S1130DC081E00F900F90CF91DF910895DF93CF933F
S1130DD000D00F92CDB7DEB79A8389836B838B8162
S1130DE00E94DD04882F90E0880F991FFC01E257D0
S1130DF0FF4F0190F081E02D8081E981FA818083A9
S1130E0081E00F900F900F90CF91DF91089550588B
S1130E10BB27AA270ED00DC1FED030F003D120F09D
S1130E2031F49F3F11F41EF4F3C00EF4E095E7FB98
S1130E30E9C0E92F0FD180F3BA176207730784075B
S1130E40950718F071F49EF527C10EF4E0950B2E6A
S1130E50BA2FA02D0B01B90190010C01CA01A00108
S1130E601124FF27591B99F0593F50F4503E68F163
S1130E701A16F040A22F232F342F4427585FF3CFA4
S1130E80469537952795A795F0405395C9F77EF475
S1130E901F16BA0B620B730B840BBAF09150A1F0BE
S1130EA0FF0FBB1F661F771F881FC2F70EC0BA0F44
S1130EB0621F731F841F48F4879577956795B795CC
S1130EC0F7959E3F08F0B3CF9395880F08F09927C4
S1130ED0EE0F97958795089571D008F481E00895F1
S1130EE004D06894B111D9C00895BCD088F09F573C
S1130EF090F0B92F9927B751A0F0D1F0660F771F62
S1130F00881F991F1AF0BA95C9F712C0B13081F041
S1130F10C3D0B1E00895C0C0672F782F8827B85F89
S1130F2039F0B93FCCF3869577956795B395D9F7A2
S1130F303EF490958095709561957F4F8F4F9F4FAC
S1130F400895E89409C097FB3EF4909580957095B8
S1130F5061957F4F8F4F9F4F9923A9F0F92F96E901
S1130F60BB279395F695879577956795B795F11176
S1130F70F8CFFAF4BB0F11F460FF1BC06F5F7F4F13
S1130F808F4F9F4F16C0882311F096E911C0772325
S1130F9021F09EE8872F762F05C0662371F096E82E
S1130FA0862F70E060E02AF09A95660F771F881FFD
S1130FB0DAF7880F9695879597F90895990F0008A1
S1130FC0550FAA0BE0E8FEEF16161706E807F90717
S1130FD0C0F012161306E407F50798F0621B730BB2
S1130FE0840B950B39F40A2661F0232B242B252B33
S1130FF021F408950A2609F4A140A6958FEF811DD6
S1131000811D089597F99F6780E870E060E0089576
S11310109FEF80EC089500240A941616170618060C
S11310200906089500240A941216130614060506E8
S11310300895092E0394000C11F4882352F0BB0F79
S113104040F4BF2B11F460FF04C06F5F7F4F8F4FDC
S11310509F4F089557FD9058440F551F59F05F3F17
S113106071F04795880F97FB991F61F09F3F79F0C6
S113107087950895121613061406551FF2CF469548
S1131080F1DF08C0161617061806991FF1CF8695CA
S11310907105610508940895E894BB2766277727AE
S11310A0CB0197F908950BD0C4CFB5DF28F0BADF90
S11310B018F0952309F0A6CFABCF1124EECFCADFE9
S11310C0A0F3959FD1F3950F50E0551F629FF00157
S11310D0729FBB27F00DB11D639FAA27F00DB11DB0
S11310E0AA1F649F6627B00DA11D661F829F222739
S11310F0B00DA11D621F739FB00DA11D621F839FC0
S1131100A00D611D221F749F3327A00D611D231F95
S1131110849F600D211D822F762F6A2F11249F57E3
S113112050408AF0E1F088234AF0EE0FFF1FBB1F06
S1131130661F771F881F91505040A9F79E3F5105A5
S113114070F060CFAACF5F3FECF3983EDCF3869556
S113115077956795B795F795E7959F5FC1F7FE2B50
S1131160880F911D9695879597F9089597FB092EF9
S113117007260AD077FD04D00CD006D000201AF43C
S1131180709561957F4F0895F6F7909581959F4FDF
S11311900895AA1BBB1B51E107C0AA1FBB1FA617BA
S11311A0B70710F0A61BB70B881F991F5A95A9F70C
S11311B080959095BC01CD010895CF93DF93AC0148
S11311C08230910510F442E050E0E091A000F091EB
S11311D0A10020E030E0A0E0B0E024C08081918153
S11311E084179507D0F08417950771F48281938151
S11311F0109729F013969C938E9312972CC090937A
S1131200A1008093A00027C02115310519F0821791
S1131210930718F49C01BD01EF0192818381DF01E2
S1131220E92FF82F3097D1F621153105F9F0C901CE
S1131230841B950B8430910580F48A819B81611510
S1131240710521F0FB019383828304C09093A10074
S11312508093A000FE01329642C0FE01E80FF91F00
S11312604193519302979983888339C080919E005A
S113127090919F00009741F48091820090918300A7
S113128090939F0080939E00209180003091810074
S11312902115310541F42DB73EB78091840090911A
S11312A08500281B390BE0919E00F0919F00E21706
S11312B0F30798F42E1B3F0B2417350770F0CA016F
S11312C002962817390748F08E0F9F1F90939F00AE
S11312D080939E004193519302C0E0E0F0E0CF017F
S11312E0DF91CF9108950F931F93CF93DF939C01C8
S11312F0009709F48CC0DC01129713961C921E927D
S113130012976091A0007091A1006115710589F494
S11313108D919C911197820F931F20919E00309183
S11313209F002817390769F5B0939F00A0939E008A
S11313306EC0FB0140E050E001C0FC01EA17FB076E
S113134030F482819381AF010097B9F71FC0E9019E
S11313502297FB83EA8308811981C901800F911FB9
S11313608E179F0759F480819181800F911F0296F7
S113137099838883828193819B838A834115510554
S113138029F4B093A100A093A00041C0FA01B38353
S1131390A283C191D191EC0FFD1FAE17BF0781F459
S11313A0F901929182918C0F9D1F0296DA01119698
S11313B09C938E938281938113969C938E93129720
S11313C0E0E0F0E002C0FB01BC01DB0112968D916C
S11313D09C9113970097B9F7CB0102962D913C91FC
S11313E01197820F931F20919E0030919F00281720
S11313F0390769F4309729F41092A1001092A000E3
S113140002C01382128270939F0060939E00DF914A
S1131410CF911F910F910895AEE0B0E0E2E1FAE0C0
S11314200C94BA0C0D891E8986E08C831A83098377
S11314308FEF9FE79E838D83AE01475E5F4FCE01A2
S113144001966F89788D0E942E0AEF81F885E00F4E
S1131450F11F10822E96E4E00C94D60CADE0B0E0BF
S1131460E4E3FAE00C94AC0C3C017D876C875A01F0
S1131470FC0117821682838181FFC8C12E01089462
S1131480411C511CF3019381EC85FD8593FD8591ED
S113149093FF8191FD87EC87882309F4B3C18532DA
S11314A041F493FD859193FF8191FD87EC8785320B
S11314B029F490E0B3010E94220CE4CFFF24EE242F
S11314C010E01032B0F48B3269F08C3228F48032A0
S11314D051F0833271F40BC08D3239F0803349F40A
S11314E011602CC01260146029C0186027C01061FC
S11314F025C017FD2EC0282F20532A3098F416FF3C
S113150008C08F2D880FF82EFF0CFF0CF80EF20E7A
S113151015C08E2D880FE82EEE0CEE0CE80EE20EB0
S113152010620CC08E3221F416FD6CC1106406C02A
S11315308C3611F4106802C0883659F4EC85FD85A8
S113154093FD859193FF8191FD87EC87882309F0B2
S1131550B8CF982F9554933018F09052933038F4B4
S113156024E030E0A20EB31E3FE339830FC083367C
S113157031F0833781F0833509F05AC022C0F50178
S11315808081898322E030E0A20EB31E21E0C22EC6
S1131590D12C420114C092E0292E312C2A0C3B1C80
S11315A0F5018080918016FF03C06F2D70E002C0AA
S11315B06FEF7FEFC4010E94170C6C0151011F777C
S11315C015C082E0282E312C2A0C3B1CF5018080AA
S11315D0918016FF03C06F2D70E002C06FEF7FEFA4
S11315E0C4010E940C0C6C011068510113FD1CC055
S11315F006C080E290E0B3010E94220CEA948E2D92
S113160090E0C816D906A8F30FC0F40117FD859120
S113161017FF81914F0190E0B3010E94220CE11069
S1131620EA940894C108D108C114D10471F7E7C041
S1131630843611F0893651F5F50117FF07C0808112
S11316409181A281B38124E030E008C0808191813E
S1131650AA2797FDA095BA2F22E030E0A20EB31E70
S1131660012F0F76B7FF08C0B095A095909581958E
S11316709F4FAF4FBF4F0068BC01CD01A2012AE0CC
S113168030E00E944E0CD82ED4183FC0853721F488
S11316901F7E2AE030E020C0197F8F36A9F0803702
S11316A020F4883509F0AEC00BC0803721F08837AC
S11316B009F0A8C001C0106114FF09C0146007C07C
S11316C014FF08C0166006C028E030E005C020E121
S11316D030E002C020E132E0F50117FF07C060816D
S11316E071818281938144E050E006C06081718100
S11316F080E090E042E050E0A40EB51EA2010E94FA
S11317004E0CD82ED418012F0F7706FF09C00E7F78
S1131710DF1430F404FF06C002FD04C00F7E02C0D3
S11317201D2D01C01F2D802F90E004FF0CC0FE0171
S1131730ED0DF11D2081203311F4097E09C002FF53
S113174006C01E5F05C086789070009709F01F5F81
S1131750802E992403FD12C000FF0DC0FD2C1E1520
S113176050F4FE0CF11A1E2D06C080E290E0B30185
S11317700E94220C1F5F1E15C0F304C01E1510F436
S1131780E11A01C0EE2484FE0FC080E390E0B301AF
S11317900E94220C82FE1FC081FE03C088E590E0F7
S11317A010C088E790E00DC0C4018678907000975F
S11317B091F081FC02C080E201C08BE207FD8DE262
S11317C090E0B3010E94220C06C080E390E0B301D4
S11317D00E94220CFA94DF14C0F3DA94F201ED0DA6
S11317E0F11D808190E0B3010E94220CDD20A9F755
S11317F006C080E290E0B3010E94220CEA94EE203D
S1131800C1F740CEF3018681978102C08FEF9FEF2D
S11318102D96E2E10C94C80CFC01059061507040D7
S11318200110D8F7809590958E0F9F1F0895FC01A5
S11318306150704001900110D8F7809590958E0FFB
S11318409F1F08950F931F93CF93DF938C01EB0198
S11318508B8181FF1BC082FF0DC02E813F818C8153
S11318609D812817390764F4E881F9810193F9838C
S1131870E88306C0E885F985802F0995009731F43F
S11318808E819F8101969F838E8302C00FEF1FEF8D
S1131890C801DF91CF911F910F910895FA01AA27F2
S11318A0283051F1203181F1E8946F936E7F6E5F9F
S11318B07F4F8F4F9F4FAF4FB1E03ED0B4E03CD04D
S11318C0670F781F891F9A1FA11D680F791F8A1F30
S11318D0911DA11D6A0F711D811D911DA11D20D097
S11318E009F468943F912AE0269F11243019305D51
S11318F03193DEF6CF010895462F4770405D419342
S1131900B3E00FD0C9F7F6CF462F4F70405D4A338E
S113191018F0495D31FD4052419302D0A9F7EACF56
S1131920B4E0A6959795879577956795BA95C9F785
S113193000976105710508959B01AC010A2E069478
S11319405795479537952795BA95C9F7620F731F31
S1131950841F951FA01D08952F923F924F925F926E
S11319606F927F928F929F92AF92BF92CF92DF92AB
S1131970EF92FF920F931F93CF93DF93CDB7DEB710
S1131980CA1BDB0B0FB6F894DEBF0FBECDBF0994A4
S11319902A88398848885F846E847D848C849B84FB
S11319A0AA84B984C884DF80EE80FD800C811B8109
S11319B0AA81B981CE0FD11D0FB6F894DEBF0FBE38
S10D19C0CDBFED010895F894FFCFA8
S11319CA04000500060007000000010002000300ED
S11319DA2564002D0000257325642E253034640007
S11319EA0000A20020003B003800350032003A0013
S11119FA37003400310039003600330030006D
S9030000FC
