S0150000736576656E5F7365676D656E742E737265639C
S11300000C942A000C94A7000C9447000C9447000D
S11300100C9447000C9447000C9447000C94470040
S11300200C9447000C9447000C9447000C9449002E
S11300300C9447000C9447000C9447000C94470020
S11300400C9447000C9447000C9447000C94470010
S11300500C94470011241FBECFE5D8E0DEBFCDBF0E
S113006010E0A0E6B0E0E0ECF5E002C005900D92EF
S1130070A437B107D9F720E0A4E7B0E001C01D928E
S1130080AD37B207E1F70E94C1000C94DE020C9474
S113009000001F920F920FB60F9211248F939F931B
S11300A080917B0090917C00049754F480917B00B4
S11300B090917C00019690937C0080937B0040C0DB
S11300C010927C0010927B008091750090917600D4
S11300D0CC9754F48091750090917600019690939A
S11300E07600809375002CC01092760010927500F3
S11300F08091770090917800CC9754F480917700A8
S1130100909178000196909378008093770018C0BE
S113011010927800109277008091790090917A0083
S1130120489754F48091790090917A0001969093C5
S11301307A008093790004C010927A0010927900BA
S11301409F918F910F900FBE0F901F9018951F9243
S11301500F920FB60F9211248F939F939091740076
S113016081E098279093740099B7892789BF80917B
S113017074008BBB9F918F910F900FBE0F901F90B7
S11301801895D09AD8988FEF84BB87BB11BA82BBDD
S113019085E083BF89B7816089BF85B7826085BFE9
S11301A08BB780648BBF789410E00F2EFEEFBF2EC8
S11301B0F02D2AE030E00F2EFDEFCF2EF02D0F2E84
S11301C0FBEFDF2EF02DD7EFCFEE4FED912C68949F
S11301D0882481F80F2EFBE34F2E512CF02D0F2E87
S11301E0F7E1EF2EF12CF02D7724739480917400B5
S11301F0B5BA8091750090917600B9010E94B6025B
S1130200FC01EE0FFF1FE05AFF4F808188BB81EE97
S113021094E00197F1F700C00000C5BA8091750021
S113022090917600B9010E94B602FB01EE0FFF1F08
S1130230E05AFF4F808188BB81EE94E00197F1F78B
S113024000C00000D5BA8091770090917800B90180
S11302500E94B602FC01EE0FFF1FE05AFF4F80819F
S113026088BB81EE94E00197F1F700C00000D5BB94
S11302708091770090917800B9010E94B602FB0149
S1130280EE0FFF1FE05AFF4F808188BB81EE94E0A0
S11302900197F1F700C00000C5BB809179009091EF
S11302A07A00B9010E94B602FC01EE0FFF1FE05A6A
S11302B0FF4F808188BB81EE94E00197F1F700C085
S11302C0000045BB8091790090917A00B9010E94A9
S11302D0B602FB01EE0FFF1FE05AFF4F808188BB7F
S11302E081EE94E00197F1F700C000008091740062
S11302F0882309F47BCF869907C0869BFECF1230F2
S113030010F41F5F01C0192D859907C0859BFECF8E
S1130310112311F0115001C0182D839947C0839BFC
S1130320FECF1130C9F018F0123059F13FC080915E
S1130330750090917600CB9754F48091750090915C
S11303407600019690937600809375000CC110920C
S113035076001092750007C1809177009091780023
S1130360CB9754F480917700909178000196909304
S1130370780080937700F1C0109278001092770093
S1130380ECC08091790090917A00479754F4809161
S1130390790090917A00019690937A008093790085
S11303A0DFC010927A0010927900DAC084994AC0B2
S11303B0849BFECF1130D1F018F0123069F142C0A5
S11303C080917500909176001816190654F4809166
S11303D07500909176000197909376008093750054
S11303E038C0509276004092750033C080917700F7
S11303F0909178001816190654F480917700909122
S11304007800019790937800809377004EC05092C3
S113041078004092770049C08091790090917A00E9
S11304201816190654F48091790090917A00019776
S113043090937A008093790064C0F0927A00E092FD
S113044079005FC0113089F120F0123009F0CECE6E
S113045058C0B5BA8091750090917600B9010E9498
S1130460B602FC01EE0FFF1FE05AFF4F808188BBEC
S113047083ED90E30197F1F700C00000C5BA8091C5
S1130480750090917600B9010E94B602FB01EE0F4F
S1130490FF1FE05AFF4F808188BB83ED90E30197F3
S11304A0F1F700C00000192DA1CED5BA80917700D4
S11304B090917800B9010E94B602FC01EE0FFF1F73
S11304C0E05AFF4F808188BB83ED90E30197F1F7F9
S11304D000C00000D5BB8091770090917800B901ED
S11304E00E94B602FB01EE0FFF1FE05AFF4F80810E
S11304F088BB83ED90E30197F1F700C00000172D4E
S113050075CEC5BB8091790090917A00B9010E94A3
S1130510B602FC01EE0FFF1FE05AFF4F808188BB3B
S113052083ED90E30197F1F700C0000045BB809193
S1130530790090917A00B9010E94B602FB01EE0F96
S1130540FF1FE05AFF4F808188BB83ED90E3019742
S1130550F1F700C00000182D49CE849B29CFA5CF08
S11305608499CFCF25CF849B23CF73CF97FB072EBE
S113057016F4009407D077FD09D00E94CA0207FC44
S113058005D03EF4909581959F4F0895709561959F
S11305907F4F0895AA1BBB1B51E107C0AA1FBB1FB5
S11305A0A617B70710F0A61BB70B881F991F5A95FB
S11305B0A9F780959095BC01CD010895F894FFCFDB
S11305C03F0006005B004F0066006D007D000700E1
S10705D07F0067003D
S9030000FC
