:100000000C9444000C9461000C9461000C94610009
:100010000C9461000C9461000C9461000C946100DC
:100020000C9461000C9461000C9461000C946100CC
:100030000C9461000C9461000C9461000C946100BC
:100040000C9461000C9461000C9461000C946100AC
:100050000C9461006D036D036D036D036D036D03FF
:100060006D036D036D036D03CE03CE03CE03A803B2
:10007000CE03CE03CE0398038F03CE039D03CE039E
:10008000CE03CE03CE03C60311241FBECFE5D8E0B6
:10009000DEBFCDBF10E0A0E6B0E0ECE3F2E102C0CD
:1000A00005900D92AA3FB107D9F721E0AAEFB0E081
:1000B00001C01D92A635B207E1F70E94E6050C9437
:1000C0001C090C94000060E080E00E9462058AE751
:1000D00090E00E94800560E081E00E9462058CE86B
:1000E00090E00E9480052FEF84E39CE02150804047
:1000F0009040E1F700C000000E94410560E080E010
:100100000E9462058DE990E00E94800560E081E038
:100110000E94620585EA90E00E94800581E080935C
:10012000FE0008950E94410560E080E00E946205A3
:1001300085EB90E00E94800560E081E00E9462050E
:1001400086EC90E00E94800581E08093FD00089598
:100150008091FE00811113C00E94630010C00E94B4
:10016000F603809364009091FD00911108C08133E3
:1001700021F080916300813311F40E9492008091FC
:100180006400813361F78AE58093640080936300A3
:100190000895809164008A3531F40E94F6038093BB
:1001A00064008A35D1F3809365008AE5809364000A
:1001B0000895809164008133F1F48091420190911F
:1001C0004301009739F481E090E0909343018093DC
:1001D000420108959C01220F331F880F991F880F39
:1001E000991F880F991F820F931F019690934301C7
:1001F0008093420108958233F1F4809142019091FD
:100200004301009739F482E090E09093430180939A
:10021000420108959C01220F331F880F991F880FF8
:10022000991F880F991F820F931F02969093430185
:100230008093420108958333F1F4809142019091BB
:100240004301009739F483E090E090934301809359
:10025000420108959C01220F331F880F991F880FB8
:10026000991F880F991F820F931F03969093430144
:100270008093420108958433F1F48091420190917A
:100280004301009739F484E090E090934301809318
:10029000420108959C01220F331F880F991F880F78
:1002A000991F880F991F820F931F04969093430103
:1002B0008093420108958533F1F480914201909139
:1002C0004301009739F485E090E0909343018093D7
:1002D000420108959C01220F331F880F991F880F38
:1002E000991F880F991F820F931F059690934301C2
:1002F0008093420108958633F1F4809142019091F8
:100300004301009739F486E090E090934301809395
:10031000420108959C01220F331F880F991F880FF7
:10032000991F880F991F820F931F06969093430180
:100330008093420108958733F1F4809142019091B6
:100340004301009739F487E090E090934301809354
:10035000420108959C01220F331F880F991F880FB7
:10036000991F880F991F820F931F0796909343013F
:100370008093420108958833F1F480914201909175
:100380004301009739F488E090E090934301809313
:10039000420108959C01220F331F880F991F880F77
:1003A000991F880F991F820F931F089690934301FE
:1003B0008093420108958933F1F480914201909134
:1003C0004301009739F489E090E0909343018093D2
:1003D000420108959C01220F331F880F991F880F37
:1003E000991F880F991F820F931F099690934301BD
:1003F0008093420108958033B1F48091420190913D
:1004000043010097F1F09C01220F331F880F991FC1
:10041000880F991F880F991F820F931F9093430194
:10042000809342010895843461F480914201909157
:1004300043016AE070E00E940406709343016093F8
:10044000420108958091FF0090910001009731F4DE
:100450008BE2809341010E94740512C09C012150DF
:1004600031092430310560F4FC01E052FF4F8081F6
:10047000809341010E94D405809141010E9474053E
:100480008091FF009091000101968530910529F03F
:10049000909300018093FF00089581E090E0909395
:1004A00000018093FF000895809103019091040161
:1004B000FC01EE0FFF1FE75EFE4F209142013091DD
:1004C00043013183208301969093040180930301BB
:1004D00081E08093FB001092600010924301109223
:1004E0004201089580910101909102012091410102
:1004F000FC01EB5FFE4F20830196909302018093F5
:10050000010181E0809360001092FB008091FA006D
:10051000813071F4E0916100F0916200208380915C
:100520006100909162000196909362008093610057
:10053000109200011092FF008AE580934101089516
:100540000F931F93CF93DF932091190130911A01DC
:100550000091010110910201101611068CF5E5E0E1
:10056000F1E0CBE1D1E00B5F1E4F91919B3249F05E
:1005700018F49A3281F020C09D3241F09F32B1F0E0
:100580001BC088819981280F391F16C088819981E5
:10059000281B390B11C088819981A901489F9001BE
:1005A000499F300D589F300D112406C06881798114
:1005B000C9010E9404069B012296E017F107A9F6E3
:1005C000309355012093540130931A01209319015F
:1005D000DF91CF911F910F9108958091FC008111BF
:1005E00010C00E94DE0560E081E00E94620583ED9C
:1005F00090E00E94800580915401909155010E94E5
:10060000A70508958AE58093410110925501109243
:1006100054011092040110920301109202011092F1
:1006200001011092430110924201109200011092B8
:10063000FF0008950F931F93CF93DF93CDB7DEB7DD
:1006400064970FB6F894DEBF0FBECDBF84E491E08F
:100650009F938F93809155018F93809154018F9335
:100660008CED90E09F938F938E010F5F1F4F1F9330
:100670000F930E94320660E080E00E946205C8018C
:100680000E9480050FB6F894DEBF0FBECDBF649602
:100690000FB6F894DEBF0FBECDBFDF91CF911F9193
:1006A0000F91089584E491E090936200809361003B
:1006B00008958AE5809364000E94F60380936400A5
:1006C0008A35D1F390E0FC01F097EA31F10508F0AA
:1006D00065C0E65DFF4F0C9418060E94D90080911A
:1006E00064000E94740580916000811102C00E9424
:1006F00072028091FA00813009F050C0E0916100EF
:10070000F0916200809164008083809161009091FB
:1007100062000196909362008093610008950E94A8
:1007200022028091FB00811139C00E945402089579
:100730000E9441050E940203089580914201909118
:100740004301892B59F10E94D4050E94D9000895D4
:100750000E9454028091FA00813031F40E944105D8
:100760000E941A030E94520381E08093FA000E94C3
:10077000A0020E94ED0281E090E09093040180933A
:1007800003011092020110920101089580E3809309
:1007900065001092FD0081E38093630008958AE56F
:1007A000809364000E94F603809364008A35D1F33D
:1007B000803380F0823318F0823421F008950E9453
:1007C000740508950E9422028091FB00811102C0ED
:1007D0000E9454020895A09881B38F6381BB85B3B2
:1007E0008F6085BB81B38F6381BB0895EF92FF92C9
:1007F0000F931F93CF93DF93C6E6D0E060E070E0E5
:10080000FE0141E050E092B3DA01008002C0AA0F7D
:10081000BB1F0A94E2F79A01028002C0220F331F25
:100820000A94E2F72A2B822F892B9A01048002C0B6
:10083000220F331F0A94E2F7282BCA01068002C058
:10084000880F991F0A94E2F7822B9A01008402C054
:10085000220F331F0A94E2F7282BCA01028402C038
:10086000880F991F0A94E2F7822B82BB92B388818A
:1008700022969A0102C0220F331F8A95E2F7822F37
:100880008095892382BBA2E7B0E0EE24E394F12CAB
:1008900000E010E005C00F5F1F4F8FEFE81AF80A65
:1008A00083B32C91129690E0022E02C09595879505
:1008B0000A94E2F780FD7CC0CA0102C0880F991F2C
:1008C0002A95E2F79C0183B390E082239323892B3E
:1008D000D1F36230710599F13CF46115710571F045
:1008E00061307105E1F064C06430710509F447C0FE
:1008F000B4F16530710509F44EC05AC001151105F7
:1009000009F463C00130110509F461C0023011051A
:1009100009F45FC00330110509F04AC05CC001153D
:10092000110509F45AC00130110509F458C002300C
:10093000110509F456C003301105D1F554C0011555
:10094000110509F452C00130110509F450C00230FC
:10095000110509F44EC00330110551F54CC00115C5
:10096000110509F44AC00130110509F448C00230EC
:10097000110509F446C003301105D1F444C0011536
:10098000110509F442C00130110509F440C00330DB
:10099000110571F43EC001151105E9F10130110591
:1009A000E1F102301105D9F103301105E1F539C04B
:1009B00094E0E916F1040CF46ECF6F5F7F4F663060
:1009C000710509F020CF8AE534C081E432C082E4A9
:1009D00030C083E42EC084E42CC087E32AC084E3C3
:1009E00028C081E326C080E324C088E322C085E3D9
:1009F00020C082E31EC08EE21CC089E31AC086E3D9
:100A000018C083E316C08DE314C085E412C086E4E9
:100A100010C087E40EC088E40CC089E40AC08AE4F0
:100A200008C08BE406C084E0E816F1040CF433CF70
:100A30008AE5DF91CF911F910F91FF90EF9008957C
:100A4000C098000000008FE19EE40197F1F700C01C
:100A50000000C09A08958AB31ABAC19AC2980E9437
:100A600020058FEF8ABBC1980895CF93C82F0E94AD
:100A70002B05CBBB88B3897F88BB0E942005CF9113
:100A8000089581E00E94350508958FEC97E0019765
:100A9000F1F700C0000087B3876087BB88B3887F09
:100AA00088BB8FEF8ABB0E94410588E30E94350511
:100AB00086E00E94350580E80E9435058FE00E949F
:100AC00035050895811107C0603168F480E8860F0C
:100AD0000E9435050895813031F4603120F480ECB6
:100AE000860F0E9435050895CF93C82F0E942B05CD
:100AF000C29ACBBBC29AC1980E942005CF9108959B
:100B00000F931F93CF93DF938C01C0E0D0E015C00B
:100B100021960E947405C031D10521F480EC0E9419
:100B200035050BC0CE018097029738F40E9441052D
:100B300080E80E943505C0E0D0E0F80181918F0186
:100B40008111E6CFDF91CF911F910F9108950F93FF
:100B50001F93CF93DF93CDB7DEB72A970FB6F894E4
:100B6000DEBF0FBECDBF9F938F9385EE90E09F9326
:100B70008F938E010F5F1F4F1F930F930E943206BA
:100B8000C8010E9480050F900F900F900F900F905A
:100B90000F902A960FB6F894DEBF0FBECDBFDF913F
:100BA000CF911F910F91089584E00E94350580E256
:100BB0000E94740586E00E943505089580EC0E942D
:100BC000350588EE90E00E94800508950E94EB03B1
:100BD0000E944505809165009091660081339105E2
:100BE00069F08233910569F080339105B9F70E946D
:100BF000A8000E94C9000E944105ECCF0E94590341
:100C0000E9CF0E94CF03E6CF97FB072E16F400949E
:100C100007D077FD09D00E941E0607FC05D03EF4E0
:100C2000909581959F4F0895709561957F4F089598
:100C3000EE0FFF1F0590F491E02D0994AA1BBB1B3A
:100C400051E107C0AA1FBB1FA617B70710F0A61BCC
:100C5000B70B881F991F5A95A9F780959095BC01ED
:100C6000CD010895AEE0B0E0E8E3F6E00C94F308BF
:100C70000D891E8986E08C831A8309838FEF9FE795
:100C80009E838D83AE01475E5F4F6F89788DCE0165
:100C900001960E945406EF81F885E00FF11F108243
:100CA0002E96E4E00C940F09ABE0B0E0EAE5F6E044
:100CB0000C94E5086C017B018A01FC011782168205
:100CC000838181FFCCC1CE0101963C01F601938165
:100CD000F70193FD859193FF81917F01882309F4AA
:100CE000BAC1853239F493FD859193FF81917F01DB
:100CF000853229F4B60190E00E944B08E7CF912C91
:100D0000212C312CFFE1F315D8F08B3279F038F437
:100D1000803279F08332A1F4232D20611DC08D3201
:100D200061F0803369F4232D216016C0832D826029
:100D3000382EE32DE4603E2E2AC0F32DF8601DC04E
:100D400037FC2DC020ED280F2A3040F08E32B9F448
:100D500036FC81C1232D2064322E19C036FE06C018
:100D60008AE0989E200D1124922E11C0EAE02E9E5A
:100D7000200D1124222EF32DF0623F2E08C08C3658
:100D800021F4832D8068382E02C0883641F4F701A3
:100D900093FD859193FF81917F018111B3CF982FAE
:100DA0009F7D9554933028F40C5F1F4F9FE39983E8
:100DB0000DC0833631F0833771F0833509F059C0A7
:100DC00021C0F801808189830E5F1F4F882483949E
:100DD000912C530113C02801F2E04F0E511CF80171
:100DE000A080B18036FE03C0692D70E002C06FEFB5
:100DF0007FEFC5010E9440084C018201F32DFF776F
:100E00003F2E16C0280122E0420E511CF801A0809E
:100E1000B18036FE03C0692D70E002C06FEF7FEF36
:100E2000C5010E9435084C01F32DF0683F2E820168
:100E300033FC1BC0822D90E088169906B0F4B601F1
:100E400080E290E00E944B082A94F4CFF50137FC31
:100E5000859137FE81915F01B60190E00E944B08B9
:100E600021102A9421E0821A91088114910471F7CB
:100E7000E8C0843611F0893641F5F80137FE07C025
:100E800060817181828193810C5F1F4F08C06081F6
:100E90007181072E000C880B990B0E5F1F4FF32DED
:100EA000FF763F2E97FF09C09095809570956195CC
:100EB0007F4F8F4F9F4FF0683F2E2AE030E0A30115
:100EC0000E948708882E861845C0853731F4232D67
:100ED0002F7EB22E2AE030E025C0932D997FB92EC7
:100EE0008F36C1F018F4883579F0B5C0803719F025
:100EF000883721F0B0C0E92FE061BE2EB4FE0DC0EE
:100F0000FB2DF460BF2E09C034FE0AC0292F2660D5
:100F1000B22E06C028E030E005C020E130E002C07B
:100F200020E132E0F801B7FE07C060817181828163
:100F300093810C5F1F4F06C06081718180E090E05B
:100F40000E5F1F4FA3010E948708882E8618FB2D75
:100F5000FF773F2E36FE0DC0232D2E7FA22E891443
:100F600058F434FE0BC032FC09C0832D8E7EA82EAF
:100F700005C0B82CA32C03C0B82C01C0B92CA4FE0A
:100F80000FC0FE01E80DF11D8081803321F49A2D00
:100F9000997EA92E09C0A2FE06C0B394B39404C0E2
:100FA0008A2D867809F0B394A3FC11C0A0FE06C078
:100FB000B21488F4280C922C9B180EC0B21460F462
:100FC000B60180E290E00E944B08B394F7CFB214D0
:100FD00018F42B1802C0982C212CA4FE10C0B601C6
:100FE00080E390E00E944B08A2FE17C0A1FC03C062
:100FF00088E790E002C088E590E0B6010CC08A2D39
:10100000867859F0A1FE02C08BE201C080E2A7FC05
:101010008DE2B60190E00E944B08891438F4B601C5
:1010200080E390E00E944B089A94F7CF8A94F301F2
:10103000E80DF11D8081B60190E00E944B088110FF
:10104000F5CF222009F442CEB60180E290E00E9462
:101050004B082A94F6CFF6018681978102C08FEF64
:101060009FEF2B96E2E10C940109FC010590615081
:1010700070400110D8F7809590958E0F9F1F0895AE
:10108000FC016150704001900110D8F78095909557
:101090008E0F9F1F08950F931F93CF93DF93FB0134
:1010A000238121FD03C08FEF9FEF2CC022FF16C0CC
:1010B00046815781248135814217530744F4A0812A
:1010C000B1819D012F5F3F4F318320838C93268117
:1010D00037812F5F3F4F3783268314C08B01EC018C
:1010E000FB010084F185E02D0995892BE1F6D801FB
:1010F00016968D919C911797019617969C938E93B7
:101100001697CE01DF91CF911F910F910895FA01AB
:10111000AA27283051F1203181F1E8946F936E7F36
:101120006E5F7F4F8F4F9F4FAF4FB1E03ED0B4E027
:101130003CD0670F781F891F9A1FA11D680F791F68
:101140008A1F911DA11D6A0F711D811D911DA11D79
:1011500020D009F468943F912AE0269F1124301989
:10116000305D3193DEF6CF010895462F4770405D24
:101170004193B3E00FD0C9F7F6CF462F4F70405DD3
:101180004A3318F0495D31FD4052419302D0A9F72E
:10119000EACFB4E0A6959795879577956795BA9528
:1011A000C9F700976105710508959B01AC010A2EEE
:1011B00006945795479537952795BA95C9F7620FC5
:1011C000731F841F951FA01D08952F923F924F9269
:1011D0005F926F927F928F929F92AF92BF92CF92C7
:1011E000DF92EF92FF920F931F93CF93DF93CDB7D0
:1011F000DEB7CA1BDB0B0FB6F894DEBF0FBECDBF48
:1012000009942A88398848885F846E847D848C8418
:101210009B84AA84B984C884DF80EE80FD800C8121
:101220001B81AA81B981CE0FD11D0FB6F894DEBF04
:0C1230000FBECDBFED010895F894FFCF74
:10123C000144015A5A30000001000200030004006E
:10124C00050000000100020003002020202057456B
:10125C004C434F4D4520544F2020200020204D5909
:10126C002043414C43554C41544F522000656E7401
:10127C006572203100746F2073656C656374206D2A
:10128C006F64657300312D41525448204F504552C4
:10129C004154494F4E00322D4C4F474943204F503B
:1012AC00455200726573756C74203D00256425737E
:1012BC00002B2D2A2F2564002020202020202020E8
:0A12CC002020202020202020000018
:00000001FF
