S01A00004469676974616C5F436C6F636B5F5A6961642E737265631A
S11300000C942A000C943C000C943C000C943C008E
S11300100C943C000C943C000C943C000C943C006C
S11300200C943C000C943C000C943C000C943C005C
S11300300C943C000C943C000C943C000C943C004C
S11300400C943C000C943C000C943C000C943C003C
S11300500C943C0011241FBECFE5D8E0DEBFCDBF19
S113006020E0A0E6B0E001C01D92A636B207E1F799
S11300700E943E000C94AF000C9400008FEF8ABBEA
S113008087BB84BB11BA1092600010926300109277
S1130090650010926100109262001092640020E0EA
S11300A090916000923021F480916300843059F380
S11300B08091620030E1839FC0011124822B8BBBAD
S11300C08091650020E1829FC0011124909161001C
S11300D0892B88BB8091600030E1839FC00111248B
S11300E090916300892B85BB8FE39DE023E08150D1
S11300F090402040E1F700C00000809164008F5FD1
S1130100809364008A3010F4282FCACF8091620053
S11301108F5F80936200863008F4BFCF80916100C6
S11301208F5F809361008A3008F4B5CF80916500B9
S11301308F5F80936500863008F4ABCF80916300B5
S11301408F5F80936300883108F4A1CF80916000B1
S11301508F5F80936000833008F497CF94CFF89436
S1050160FFCFCB
S9030000FC
