:100000000C942A000C9447000C9447000C94470071
:100010000C9447000C9447000C9447000C94470044
:100020000C9447000C9447000C9447000C94470034
:100030000C9447000C9447000C9447000C94470024
:100040000C9447000C9447000C9447000C94470014
:100050000C94470011241FBECFE5D8E0DEBFCDBF12
:1000600012E0A0E6B0E0E6E6F1E002C005900D92F5
:10007000A83AB107D9F722E0A8EAB2E001C01D9280
:10008000AC3AB207E1F70E94A5000C94B1000C94C1
:1000900000004091AA025091AB02E82FF0E0F097E7
:1000A000EE0FFF1FEE0FFF1FEE0FFF1FE40FF51FF8
:1000B000E05AFF4F808121E030E002C0220F331F61
:1000C0004A95E2F72BBB809588BB8091AA0290915C
:1000D000AB028730910529F41092AB021092AA026C
:1000E000089501969093AB028093AA0208954091DF
:1000F000A8025091A902E82FF0E0F097EE0FFF1F41
:10010000EE0FFF1FEE0FFF1FE40FF51FE05AFF4F2A
:10011000808121E030E002C0220F331F4A95E2F7D0
:1001200025BB809582BB8091A8029091A90287305F
:10013000910529F41092A9021092A802089501963F
:100140009093A9028093A80208958FEF8ABB87BB82
:1001500084BB81BB80E30E94490081E30E94770059
:06016000F9CFF894FFCF77
:10016600FFFFC3C3C3C3FFFF1C3C6CCC8C0C0C3F0E
:100176003E46C6CCD8307F7FFFFF03FFFF03FFFF5D
:10018600FFFFC0FFFF03FFFFFFFFC0FFFFC3FFFF2F
:10019600FFFF03067F7F3060FFFFC3FFFFC3FFFF44
:1001A600FFFFC3FFFF03FFFF001818000018180029
:1001B6000018180018181000183060C0C0603018F9
:1001C600007E7E00007E7E00180C060303060C18D7
:1001D6001C3E36060C0C000C00000000000000005F
:1001E6003C7EC3C3FFFFC3C3FCC3C3FCC3C3C3FC82
:1001F6003E7EE0C0C0E07E3EFCFCC6C7C7C6FCFC37
:1002060000000000000000000000000000000000E8
:1002160000000000000000000000000000000000D8
:1002260000000000000000000000000000000000C8
:1002360000000000000000000000000000000000B8
:1002460000000000000000000000000000000000A8
:100256000000000000000000FF8181FF8080808098
:10026600FF81818181FF0201FF8282FF8884828271
:100276000F08080F01010F00FE10101010101010CB
:100286000000000000000000000000000000000068
:100296000000000000000000000000000000000058
:1002A6000000000000000000000000000000000048
:1002B6000000000000000000000000000000000038
:1002C6000000000000000000000000000000000028
:1002D6000000000000000000000000000000000018
:1002E6000000000000000000000000000000000008
:1002F60000000000000000000000000000000000F8
:1003060000000000000000000000000000000000E7
:1003160000000000000000000000000000000000D7
:1003260000000000000000000000000000000000C7
:1003360000000000000000000000000000000000B7
:1003460000000000000000000000000000000000A7
:100356000000000000000000000000000000000097
:100366000000000000000000000000000000000087
:100376000000000000000000000000000000000077
:100386000000000000000000000000000000000067
:100396000000000000000000000000000000000057
:0803A60000000000000000004F
:00000001FF
