:100000000C942A000C9447000C9447000C94470071
:100010000C9447000C9447000C9447000C94470044
:100020000C9447000C9447000C9447000C94470034
:100030000C9447000C9447000C9447000C94470024
:100040000C9447000C9447000C9447000C94470014
:100050000C94470011241FBECFE5D8E0DEBFCDBF12
:1000600012E0A0E6B0E0E6E6F1E002C005900D92F5
:10007000A03BB107D9F722E0A0EBB2E001C01D928E
:10008000A43BB207E1F70E94A5000C94B1000C94C8
:1000900000004091B2025091B302E82FF0E0F097D7
:1000A000EE0FFF1FEE0FFF1FEE0FFF1FE40FF51FF8
:1000B000E05AFF4F808121E030E002C0220F331F61
:1000C0004A95E2F72BBB809588BB8091B202909154
:1000D000B3028730910529F41092B3021092B20254
:1000E000089501969093B3028093B20208954091CF
:1000F000B0025091B102E82FF0E0F097EE0FFF1F31
:10010000EE0FFF1FEE0FFF1FE40FF51FE05AFF4F2A
:10011000808121E030E002C0220F331F4A95E2F7D0
:1001200025BB809582BB8091B0029091B10287304F
:10013000910529F41092B1021092B002089501962F
:100140009093B1028093B00208958FEF8ABB87BB72
:1001500084BB81BB81E40E94490082E40E94770055
:06016000F9CFF894FFCF77
:100166000000000000000000000000000000000089
:100176000000000000000000000000000000000079
:100186000000000000000000000000000000000069
:100196000000000000000000000000000000000059
:1001A6000000000000000000000000000000000049
:1001B6000000000000000000000000000000000039
:1001C6000000000000000000000000000000000029
:1001D6000000000000000000000000000000000019
:1001E60000000000000000003C7EC3C3FFFFC3C345
:1001F600FCC3C3FCC3C3C3FC000000000000000036
:1002060000000000000000000000000000000000E8
:1002160000000000000000000000000000000000D8
:1002260000000000000000000000000000000000C8
:1002360000000000000000000000000000000000B8
:1002460000000000000000000000000000000000A8
:100256000000000000000000000000000000000098
:100266000000000000000000000000000000000088
:100276000000000000000000000000000000000078
:100286000000000000000000000000000000000068
:100296000000000000000000000000000000000058
:1002A6000000000000000000000000000000000048
:1002B6000000000000000000000000000000000038
:1002C6000000000000000000000000000000000028
:1002D6000000000000000000000000000000000018
:1002E6000000000000000000000000000000000008
:1002F60000000000000000000000000000000000F8
:1003060000000000000000000000000000000000E7
:1003160000000000000000000000000000000000D7
:1003260000000000000000000000000000000000C7
:1003360000000000000000000000000000000000B7
:1003460000000000000000000000000000000000A7
:100356000000000000000000000000000000000097
:100366000000000000000000000000000000000087
:100376000000000000000000000000000000000077
:100386000000000000000000000000000000000067
:100396000000000000000000000000000000000057
:1003A6000000000000000000000000000000000047
:00000001FF
