S01200006C65644D6174726978312E7372656337
S11300000C942A000C943F000C943F000C943F0085
S11300100C943F000C943F000C943F000C943F0060
S11300200C943F000C943F000C943F000C943F0050
S11300300C943F000C943F000C943F000C943F0040
S11300400C943F000C943F000C943F000C943F0030
S11300500C943F0011241FBECFE5D8E0DEBFCDBF16
S113006011E0A0E6B0E0E2E2F6E002C005900D92F5
S1130070A831B107D9F70E9441000C940F030C94E6
S1130080000041E060E083E30E946600C1E40DC02B
S113009064EF71E08C2F0E942F01482F60E083E30E
S11300A00E94FB00CF5F01C0C1E4CB3588F3C0E3FD
S11300B064EF71E08C2F0E941902482F60E083E303
S11300C00E94FB00CF5FCA3399F7EECF893331F03A
S11300D0863321F0833311F0803329F5683028F515
S11300E0423028F180E00895E82FF0E0218181E09A
S11300F090E0AC0102C0440F551F6A95E2F7BA01C3
S1130100622B61830895E82FF0E0218181E090E083
S1130110AC0102C0440F551F6A95E2F7BA0160951D
S113012062236183089580E0089580E0089541305A
S113013051F7DACFE82F893331F0863321F0833356
S113014011F08033D1F56830D0F54830D0F5223045
S1130150D0F54617D0F564274627642781E0840F3D
S1130160861B213019F04617A8F40895461798F114
S1130170F0E03196A1E0B0E090819D01062E02C02E
S1130180220F331F0A94E2F7292B20836F5F46174F
S113019098F70895F0E03196A1E0B0E090819D01D8
S11301A0062E02C0220F331F0A94E2F7209529235A
S11301B020836F5F461790F7089580E0089580E0EC
S11301C0089580E0089580E0089581E0840F861BFF
S11301D0213001F7CBCF0895893331F0863321F0F4
S11301E0833311F0803329F4E82FF0E0628388E050
S11301F0089580E00895893331F0863321F0833304
S113020011F0803329F5683028F5423028F180E078
S11302100895E82FF0E0228181E090E0AC0102C073
S1130220440F551F6A95E2F7BA01622B6283089561
S1130230E82FF0E0228181E090E0AC0102C0440F9D
S1130240551F6A95E2F7BA016095622362830895A7
S113025080E0089580E00895413051F7DACF2F927D
S11302603F924F925F926F927F928F929F92AF9242
S1130270BF92CF92DF92EF92FF920F931F93CF938F
S1130280DF93CDB7DEB7C258D1090FB6F894DEBFFD
S11302900FBECDBFF82E8B0182E8E4E6F0E0DE016C
S11302A0119601900D928A95E1F78FEB8F0D8A31AB
S11302B008F098C090916000993339F0963329F092
S11302C0933319F0903309F08FC090916200993301
S11302D039F0963329F0933319F0903309F086C03E
S11302E080916100823008F083C0609163006430C3
S11302F008F080C044E0460F21E0892F0E949A0054
S11303006091610046E0460F21E0809160000E9408
S11303109A0098013695279536952795ABE7B4E171
S11303200E9400034C01969487948114910409F46B
S113033063C0312C0F2EF5E02F2EF02D8F2D90E081
S1130340815491099C01220F331F220F331F820F06
S1130350931F0F2EF2E6EF2EF0E0FF2EF02D00E6B5
S113036010E0AA24A394B12CAC0EBD1EA80EB91E95
S11303700F2EF2E16F2EF02D712C2BC0D7018C9132
S1130380A82FB0E012963C93D8018C91A82FB0E02E
S1130390819112968C93862D972D01970097E9F7FA
S11303A02F5F330F253051F76FEFF80180810E94E2
S11303B0EC00F1E0CF1AD108C114D10421F0F50109
S11303C0342D252DDBCF3394832D90E088159905AA
S11303D0A8F40F2EFCEDCF2EF02DD22C4424439400
S11303E0512CEDCF80E00BC080E009C080E007C055
S11303F080E005C080E003C081E001C081E0CE5709
S1130400DF4F0FB6F894DEBF0FBECDBFDF91CF91A3
S11304101F910F91FF90EF90DF90CF90BF90AF901E
S11304209F908F907F906F905F904F903F902F9010
S113043008952F923F924F925F926F927F928F9284
S11304409F92AF92BF92CF92DF92EF92FF920F935F
S11304501F93CF93DF93CDB7DEB7E2970FB6F8942F
S1130460DEBF0FBECDBFF82E8B0182E3E6EEF0E0D7
S1130470DE01119601900D928A95E1F780ED8F0DC2
S11304808A3008F097C090916000993339F0963320
S113049029F0933319F0903309F08EC090916200E3
S11304A0993339F0963329F0933319F0903309F0E6
S11304B085C080916100823008F082C06091630041
S11304C0643008F07FC044E0460F21E0892F0E9489
S11304D09A006091610046E0460F21E0809160003F
S11304E00E949A0098013695279536952795ABE793
S11304F0B4E10E9400034C01969487948114910402
S113050009F462C0312C0F2EF5E02F2EF02D8F2D23
S113051090E0C0979C01220F331F220F331F820FDC
S1130520931F0F2EF2E6EF2EF0E0FF2EF02D00E6E3
S113053010E0AA24A394B12CAC0EBD1EA80EB91EC3
S11305400F2EF2E16F2EF02D712C2BC0D7018C9160
S1130550A82FB0E012963C93D8018C91A82FB0E05C
S1130560819112968C93862D972D01970097E9F728
S11305702F5F330F253051F76FEFF80180810E9410
S1130580EC00F1E0CF1AD108C114D10421F0F50137
S1130590342D252DDBCF3394832D90E088159905D8
S11305A0A8F40F2EFCEDCF2EF02DD22C442443942E
S11305B0512CEDCF80E00BC080E009C080E007C083
S11305C080E005C080E003C081E001C081E0E296E4
S11305D00FB6F894DEBF0FBECDBFDF91CF911F9150
S11305E00F91FF90EF90DF90CF90BF90AF909F90CE
S11305F08F907F906F905F904F903F902F900895D1
S1130600A29FB001B39FC001A39F700D811D11244F
S1130610911DB29F700D811D1124911D0895F894B0
S1050620FFCF06
S11306223600390001F6F6F60141363636005D3EF3
S11306323E3E41413E3E3E003636363600767676C2
S113064276004536363E4100777777003E3E003EDF
S11306523E403E3E3F5F3E5D6B77001F3F3F3F00A3
S1130662007D7B7D00005F6F7700413E3E3E417915
S113067276767600215E2E3E4119667676004D36F8
S11306823636597E7E007E7E403F3F3F40605F3F6C
S11306925F60005F6F5F001C6B776B1C7C7B077B6A
S11306A27C3C3A362E1E413A362E413F3F003D3BBA
S11306B23D3A362E1D4E3432363E00777675734EF1
S11306C2363636300E3636364178766E5E3E4136F2
S10B06D236364141363636315B
S9030000FC
