S016000062696E6172795F636F756E7465722E737265632A
S11300000C942A000C9434000C9434000C943400A6
S11300100C9434000C9434000C9434000C9434008C
S11300200C9434000C9434000C9434000C9434007C
S11300300C9434000C9434000C9434000C9434006C
S11300400C9434000C9434000C9434000C9434005C
S11300500C94340011241FBECFE5D8E0DEBFCDBF21
S11300600E9436000C9474000C94000080EE81BB56
S113007084EF84BB80E090E021E030E0E1E070E0D8
S11300806FEF5FEFA0E0F0E0C7E0B0E0809B04C05A
S11300908099FECF2E2F372F819B04C08199FECFEC
S11300A0262F352F820F931F8830910539F08F3F0B
S11300B01FEF910729F48C2F9B2F02C08A2F9F2FAB
S11300C0482F4295407F45BBAA9A482F4295440F3A
S11300D0407E42BB4FE3D2E41FE04150D040104089
S10F00E0E1F700C00000D2CFF894FFCF7D
S9030000FC
